:10000000D8020120E1020000DD020000DD02000054
:10001000DD020000DD020000DD0200000000000043
:10002000000000000000000000000000DD020000F1
:10003000DD02000000000000DD020000DD02000023
:10004000DD020000DD020000DD020000DD02000034
:10005000DD020000DD020000DD020000DD02000024
:10006000DD020000DD020000DD020000DD02000014
:10007000211100002D110000DD020000DD02000052
:10008000DD020000DD020000DD020000DD020000F4
:10009000DD020000DD020000DD020000DD020000E4
:1000A000DD020000DD020000DD020000DD020000D4
:1000B000DD020000DD020000DD020000DD020000C4
:1000C000DD020000DD020000DD020000DD020000B4
:1000D000DD020000DD020000DD020000DD020000A4
:1000E000DD020000DD020000000000000000000052
:1000F0000000000091120000351C0000491C0000A7
:100100005D1C0000711C0000851C0000991C000093
:10011000AD1C0000C11C0000DD020000DD0200007B
:10012000DD020000DD020000DD020000DD02000053
:10013000DD020000DD020000DD020000DD02000043
:10014000DD020000DD020000DD020000DD02000033
:10015000DD020000DD020000DD020000DD02000023
:10016000DD020000DD020000DD020000DD02000013
:10017000DD020000DD0200000000000000000000C1
:10018000DD020000DD020000DD020000DD020000F3
:1001900000000000DD020000DD020000DD020000C2
:1001A000DD020000DD020000DD020000DD020000D3
:1001B000DD020000DD020000DD020000DD020000C3
:1001C000DD020000DD020000DD020000DD020000B3
:1001D000DD020000DD020000DD020000DD020000A3
:1001E000DD020000DD020000DD020000DD02000093
:1001F000DD020000DD02000031200000452000008B
:10020000DD020000DD020000DD020000DD02000072
:10021000DD020000DD020000DD020000DD02000062
:10022000DD020000DD020000DD020000DD02000052
:10023000DD020000DD020000DD020000DD02000042
:10024000DD020000DD020000DD020000DD02000032
:10025000DD020000DD020000DD020000DD02000022
:10026000DD02000010B5054C237833B9044B13B1FF
:100270000448AFF300800123237010BDA0000020CC
:1002800000000000C02500000C4B43B10C480D4994
:1002900010B5AFF300800C48036823B910BD0A48BD
:1002A000036833B97047094B002BF7D0BDE8104005
:1002B0001847064B002BF5D0184700BF0000000080
:1002C000C0250000A4000020C025000000000000A0
:1002D00008B5014B984708BD5D060000FEE7000029
:1002E00008B5154B154A9A4209D0134B134A03E03F
:1002F000116819600433043211498B42F8D3114B51
:1003000002E000221A6004330F4A9342F9D30F4BE4
:100310000F4A22F07F029A60D3F8882042F47002DC
:10032000C3F88820BFF34F8FBFF36F8F094B9847F7
:10033000094B9847FEE700BF00000020C0250000E1
:10034000A0000020A0000020D802002000ED00E066
:1003500000000000DD230000D522000008B5402287
:10036000234BC3F89020234A536943F480635361BD
:10037000214B0122C3F8042102F1804202F5003230
:10038000C3F828211D49C3F8281193F8402102F031
:10039000FB0283F8402193F8402102F0FE0242F074
:1003A000010283F8402193F8302102F0F00283F833
:1003B00030210222C3F80421114AC3F82821C3F8CE
:1003C000281193F8412102F0FB0283F8412193F8B0
:1003D000412102F0FE0242F0010283F8412193F82C
:1003E000302102F00F0283F83021064B984708BDF8
:1003F000001C00400008004000800041000002C0D6
:100400000200024079070000064B4022C3F89C20FE
:100410004322C3F88C20044A536943F48053536148
:10042000704700BF001C004000080040104B93F8CC
:10043000D82002F0FE0242F0010283F8D82093F89F
:10044000BC2002F0F00242F0020283F8BC2093F8D4
:10045000D92002F0FE0242F0010283F8D92093F87D
:10046000BC2002F00F0242F0200283F8BC2070474B
:100470000080004110B582B0064B984700230093DE
:100480001023054A05490648064CA047064B9847E5
:1004900002B010BD09040000BC0000200030004084
:1004A00018010020890C00002D040000164B93F861
:1004B000502002F0FB0283F8502093F8502002F005
:1004C000FE0242F0010283F8502093F8382002F037
:1004D000F00242F0020283F8382093F8512002F033
:1004E000FB0283F8512093F8512002F0FE0242F003
:1004F000010283F8512093F8382002F00F0242F0F5
:10050000200283F83820704700800041064B4022CB
:10051000C3F8A0204322C3F88C20044A536943F453
:1005200000535361704700BF001C004000080040AA
:1005300008B5044B984704490448054B9847054BB8
:10054000984708BD0D0500000034004084010020DC
:1005500015090000AD04000008B50248024B984799
:1005600008BD00BF10E000E001070000084A92F853
:100570004F3003F0FE0343F0010382F84F3092F84E
:10058000373003F00F0343F0400382F837307047F1
:1005900000800041044A936943F480439361402200
:1005A000024BC3F8E820704700080040001C0040E0
:1005B00008B5064B9847064B9847064B98470246A6
:1005C00005490648064B984708BD00BF9505000041
:1005D0006D0500002B20000000C00141FC00002040
:1005E000850A0000084A92F8573003F0FE0343F0F2
:1005F000010382F8573092F83B3003F00F0343F0C9
:10060000400382F83B30704700800041044AD369C0
:1006100043F02003D3614022024BC3F8F820704717
:1006200000080040001C004008B5064B9847064BE8
:100630009847064B9847024605490648064B984797
:1006400008BD00BF0D060000E50500002B200000DE
:100650000014004268010020850A000008B5184B0C
:100660009847184B4FF480529A619A6002F1804289
:100670009A624FF040429A6293F84C2002F0FE02D8
:1006800083F84C204FF08042C3F81821C3F80821AA
:10069000C3F828210C4AC3F8282193F85E2102F000
:1006A000FE0283F85E21094B9847094B9847094B96
:1006B0009847094B9847094B9847094B984708BDFD
:1006C000F10E000000800041004000C05D0300000A
:1006D000750400003105000059050000B105000057
:1006E00029060000EFF31083036072B6BFF35F8F3B
:1006F0007047BFF35F8F036883F310887047000073
:1007000008B5024B1860024B984708BDCC0000208A
:10071000E91C000010B5044B1C68044B98470146C7
:100720002046034B984710BDCC000020E10E00008E
:10073000F51C000038B50225002407E00D4A52F8E8
:100740003330B3B1984738BD013AD5B2AC4210D876
:100750002B195B10DAB2012A0BD81346054901EBBD
:10076000C20149688142E9D08142EDD20132D4B25E
:10077000ECE738BDD000002008B500230AE0084AA5
:1007800002EBC3014FF0FF304860002142F8331004
:1007900001339BB2012BF2D90248034B984708BDA5
:1007A000D000002035070000F50F0000F0B583B041
:1007B00004460023012B0ED818462E4A02EBC30232
:1007C0005268A24202D00133DBB2F3E7294B43F86F
:1007D0003010012500E0002559B1002D3DD1002346
:1007E000012B13D8234A52F8332042B10133DBB234
:1007F000F6E7002D38D020461F4B984732E01D4ABF
:1008000042F8331002EBC30254600125002201E0DC
:100810000132D2B2012A20D8012B1ED89E4615499A
:1008200001EBC300406801EBC20149688842EFD286
:10083000B1F1FF3FECD00F4F07EBC20696E8030083
:100840008DE8030007EBC30797E8030086E8030081
:100850009DE8030087E80300DAE745B1012120465F
:10086000054B984703B0F0BD6FF00C00FAE76FF04E
:100870000C00F7E7D0000020C910000008B543883D
:1008800013F4807F02D1436B03B1984708BD08B5CC
:10089000438813F4807F02D1836B03B1984708BD6E
:1008A00008B5438813F4807F02D1036B03B19847E6
:1008B00008BD000010B584B0838AADF8043014463A
:1008C00002924FF40043ADF80630039101A9283895
:1008D000034B984710B9204604B010BD0446FAE710
:1008E0004D1B000010B584B0838AADF80430144667
:1008F000029248F20103ADF80630039101A92838AD
:10090000034B984710B9204604B010BD0446FAE7DF
:100910004D1B000070B50D46044689220F4900307A
:1009200018BF01200E4B9847294620460D4B98478B
:10093000054608B1284670BD0B4BE3620B4BA36222
:100940000B4A012120460B4EB0470B4A022120469C
:10095000B0470A4A00212046B047EBE724240000B4
:10096000E90D0000C51A0000E5080000B508000008
:100970007D080000E11B00008F080000A1080000B6
:1009800070B50446B9220D49003018BF01200C4B48
:10099000984720460B4B9847054608B1284670BD3E
:1009A000012211462046084EB0470122022120466E
:1009B000B047012200212046B047EFE72424000081
:1009C000E90D00004D1A0000FB1B0000C1F30901F6
:1009D00002F480620A43828710467047012908D0DA
:1009E00021B1022908D06FF00C007047026300208B
:1009F00070474263002070478263002070472830B0
:100A0000086000207047000070B50D461646044689
:100A100068B151B1012034220649074B9847236839
:100A2000324629462046984770BD0020F3E7002053
:100A3000F1E700BF44240000E90D000070B50D4649
:100A40001646044668B151B101203D220649074BC4
:100A500098476368324629462046984770BD002073
:100A6000F3E70020F1E700BF44240000E90D000097
:100A700008B5436903B1984708BD08B5836903B158
:100A8000984708BD38B50D46044688B171B10120BC
:100A900033220849084B984729462046074B984778
:100AA000074B2360074B6360002038BD0020EFE751
:100AB0000020EDE758240000E90D0000051E0000AD
:100AC000710A00007B0A000010B504464A22094959
:100AD000003018BF0120084B98472046074B984725
:100AE00020B92046064B9847002010BD6FF010003B
:100AF00010BD00BF58240000E90D000019200000BF
:100B0000851F000070B50D46164604467C22064936
:100B1000003018BF0120054B984732462946204631
:100B2000034B9847002070BD58240000E90D0000D9
:100B3000991F000008B500238362C3691BB1A0F1AF
:100B400008021046984708BD08B500238362436A2F
:100B50001BB1A0F108021046984708BD38B50446FD
:100B6000A0F108052C30034B9847236A0BB12846A7
:100B7000984738BD7D0E000070B50E4615460446F8
:100B8000D8B1E1B1EAB9002040F23B120F49104B55
:100B90009847B4F84420B4F84C309A4213D1A66474
:100BA000A4F84C500023A4F844300123236304F13B
:100BB0000800084B9847284670BD0020E4E7002055
:100BC000E2E70120E0E76FF01B0070BD7024000039
:100BD000E90D0000CB19000010B50446838FB0F872
:100BE0004420934209D0026C591C8187D15C044B8C
:100BF00098472046034B984710BD034B984710BDBC
:100C0000C5190000CB190000D31900002DE9F041EF
:100C100082B0884616460546A0B1A9B1B2B90020F7
:100C20004FF4AC721249134B984701A8124B9847E6
:100C300034352846114B9847074601A8104B984772
:100C400000240BE00020EBE70020E9E70120E7E7C4
:100C50000134A4B2414428460A4B98472146A74292
:100C600001D9B442F4D3204602B0BDE8F08100BF00
:100C700070240000E90D0000E5060000BD0E000034
:100C8000F3060000350E0000F8B50D4616461F4667
:100C9000044618B321B32AB333BB00203A221549C6
:100CA000154B98473A46314604F13400134B9847A8
:100CB000E0B9294604F10800114B9847034658B99A
:100CC000104A6260104A2260104AA260104AE26034
:100CD000104A2261104A62611846F8BD0020DDE723
:100CE0000020DBE70020D9E70120D7E76FF00C03F5
:100CF000F2E700BF70240000E90D0000F10D0000D4
:100D00002D1900000D0C0000790B0000D90B00001C
:100D10005D0B0000350B0000490B000010B50446C8
:100D200061220649003018BF0120054B984704F1A5
:100D30000800044B9847002010BD00BF702400003D
:100D4000E90D0000B119000038B50C46054650B158
:100D500039B1012077220549054B984725600020CD
:100D600038BD0020F6E70020F4E700BF7024000043
:100D7000E90D000070B50C4616460546832217495A
:100D8000003018BF0120164B9847012C10D024B119
:100D9000022C18D06FF00C0070BDAE62321C18BF70
:100DA0000122012105F108000E4B9847002070BD7B
:100DB0006E62321C18BF0122022105F10800094BA6
:100DC0009847002070BDEE62321C18BF012203213B
:100DD00005F10800034B9847002070BD7024000007
:100DE000E90D0000DD19000000B900BE70470000E9
:100DF00070B50E461546044678B181B18AB9002017
:100E000028220A490A4B98476B1E1D420BD163608A
:100E10000020A060E060266070BD0020F0E70020A8
:100E2000EEE70120ECE76FF00C0070BD90240000AD
:100E3000E90D000038B50D460446A8B191B1012076
:100E400040220C490C4B9847E268A3689A420DD0A7
:100E5000226861680B40D35C2B70A3680133A360E8
:100E6000002038BD0020EBE70020E9E76FF0090023
:100E700038BD00BF90240000E90D000038B50D46D4
:100E8000044651220B49003018BF01200A4B9847F5
:100E90002268E36861680B40D554E368A2689A1A37
:100EA00061688A4201D9591AA1600133E3600020C8
:100EB00038BD00BF90240000E90D000010B50446C5
:100EC00067220549003018BF0120044B9847E068AD
:100ED000A368C01A10BD00BF90240000E90D0000F7
:100EE000C0EB00100301642000FB03F0704700001A
:100EF00010B5094A13889BB21380084B9847084BDA
:100F00009847084B98470220074CA047074B984743
:100F100040F6FD70A04710BD004000418511000063
:100F2000A51100007911000039110000A91100007D
:100F300070B582B02A4B5A690192019A5A61294BC5
:100F40001868EC222849003018BF0120274B984729
:100F50004FF0FF3535E0264B03EBC6067568B5F15B
:100F6000FF3F03D01F4B1B68284698470123A3402F
:100F7000019C24EA03040194019B93FAA3F4B4FABC
:100F800084F40BB94FF0FF34B4F1FF3F14D00220CA
:100F9000002101E0013BD8B28142E0D84318C3F3FD
:100FA00047031E46124A12F83320A242D3D0A2426F
:100FB000F0DA0133D9B2EFE7094B5A690192019A8D
:100FC0005A61019B4BB1019B93FAA3F4B4FA84F4E8
:100FD000002BD9D14FF0FF34D6E702B070BD00BF6F
:100FE00000280040E0000020C4240000E90D0000BB
:100FF000B4240000314B5B6813F0010F20D12F4B5C
:101000005B6813F0030FFAD12C4B1B7813F0020F1F
:101010000ED02A4A137803F0FD031370274B5B6848
:1010200013F0030FFAD1254B5B6813F0020FFAD1CE
:101030000122224B1A70214B5B6813F0030FFAD187
:101040001E4B5B6813F0010FFAD11C4A137803F0B2
:10105000EF031370194B5B6813F0030FFAD1174BB2
:1010600000225A709A609A611A635A633321D961D7
:101070001A621A7842F002021A70104B5B6813F081
:10108000030FFAD10E4B4FF48052C3F88020BFF308
:101090004F8FBFF36F8FC3F880211A604FF4005257
:1010A000C3F88020BFF34F8FBFF36F8FC3F8802149
:1010B0001A60044B18600020704700BF00280040F1
:1010C00000E100E0E000002010B40023012B0DD867
:1010D0001C46114A02EBC3025268824202D001331D
:1010E000DBB2F3E70C4B13F8342000E0FF22FF2AB9
:1010F0000FD041B901239340084AD36053610020C7
:101100005DF8044B704701239340044A13610020AB
:10111000F6E74FF0FF30F3E7B4240000002800406A
:1011200008B5014B984708BD310F000008B5014BC9
:10113000984708BD310F000010F0010F08D00B4A8E
:101140000B4B1A620A4B5A6843F6FD731A42F9D1E7
:1011500010F0020F08D0074A054B5A62044B5A6838
:1011600043F6FD731A42F9D1704700BF0609020029
:10117000001C0040050901000122014B5A71704713
:1011800000080040064B42F286029A8200229A75BD
:10119000DA75DA6902F47C52DA6101221A74704756
:1011A0000014004070470000364A136A23F00F0312
:1011B00043F004031362334B5A6843F6FD731A423B
:1011C000F9D1304B5B6813F0040FFAD12E4B00229B
:1011D0001A772E4A9A622C4B93F82C3013F0100F8A
:1011E000F9D10022284B83F82020274B93F82C308C
:1011F00013F0040FF9D10222234B1A77224B93F8F4
:101200002C3013F0020FF9D11F4B5A6A5A621E4B51
:1012100093F82C3013F0080FF9D180221A4B83F881
:101220002020194B93F82C3013F0040FF9D1164BF2
:1012300093F8203013F0010F1DD0134B1B6903F4FA
:101240001063B3F5106FF8D10E4B5B68002BFBD128
:101250000C4A136A23F00F0343F006031362094B91
:101260005A6843F6FD731A42F9D1064B5B6813F0D6
:10127000040FFAD17047044B1B6913F4807FFAD036
:10128000E2E700BF001C0040001000400000010425
:1012900000B583B00D4B9B78DBB20193019B13F03B
:1012A000020F06D00A4B1B681BB1084A50689847CA
:1012B00009E0019B13F0010F05D0054B5B6813B1EA
:1012C000024A5068984703B05DF804FB00000241F1
:1012D000C401002070B489B006466C460C4D0FCD99
:1012E0000FC495E80F0084E80F00002007280AD8F3
:1012F00008AB03EB800353F8203CB34201D001302C
:10130000F4E7C0B200E0002009B070BC704700BF35
:10131000DC24000010B58469237E13F0010F03D094
:10132000A37D13F0010F12D1237E13F0020F03D01F
:10133000A37D13F0020F0FD1237E13F0040F15D0FD
:10134000638B03F0370363B1FF23638310BD012375
:1013500023750368984710BD022323758368984757
:1013600010BD4368A16AC9B2984710BD237EDB094E
:1013700000D110BD80232376C3689847638B9BB24E
:101380006383F6E7064B984203D0064B984203D09E
:101390007047054B1960F8E7034B5960F8E700BF49
:1013A0000030004000340040E400002008B5044B49
:1013B00098478000C0B22E3000F0FE0008BD00BF8C
:1013C000D512000008B50C4B9847002343B140F2FA
:1013D0006D220A4900200A4B98470023184608BD91
:1013E00003EB4302D100074A0A4492F820209042BE
:1013F000F4D00133DBB2E9E7D5120000502500003C
:10140000E90D0000DC24000038B504463C4B984749
:10141000E36913F0010F22D100EB4003DA00394BEE
:1014200013445A6A02F01C02E36913F0030FFBD164
:10143000236813F0020F0BD0236823F0020323600C
:10144000E36913F0030FFBD1E36913F0020FFBD143
:1014500042F001022260E36913F0030FFBD1E3695C
:1014600013F0010FFBD100EB4003DA00254B1344CE
:101470005B6A2360E36913F0030FFBD100EB4003C9
:10148000DA00204B13449B6A6360E36913F01F0F7B
:10149000FBD142000244D1001A4B0B44DA6AA2602D
:1014A0005B6A13F4005F0AD113F4C04F07D100EB5D
:1014B0004003DA00134B13441B8EA3810FE042005C
:1014C0000244D1000F4B0B44198EA28961F30C0228
:1014D000A28193F83220A38962F34F33A381094A92
:1014E00043001D18E9000D46114491F83310A17313
:1014F0002A4492F8343084F83030002038BD00BFE0
:10150000C5130000DC24000008B50D4B98470023EC
:1015100043B14FF475720B4900200B4B98474FF0C5
:10152000FF3008BD03EB4302D100084A0A4492F899
:101530003820904202D00133DBB2E9E758B208BD4F
:10154000D512000050250000E90D0000DC24000049
:1015500038B505460C460846334B9847C0B2E36998
:1015600013F0010F22D100EB4003DA002F4B13449C
:10157000DA6B02F01C02E36913F0030FFBD123685E
:1015800013F0020F0BD0236823F002032360E369FA
:1015900013F0030FFBD1E36913F0020FFBD142F00C
:1015A00001022260E36913F0030FFBD1E36913F03A
:1015B000010FFBD100EB4003DA001C4B1344DB6B43
:1015C0002360E36913F0030FFBD100EB4003DA0063
:1015D000164B13441B6C6360E36913F0040FFBD1DB
:1015E00042000244D100114B0B445A6CE26093F864
:1015F0003F3003F00303AB81012B94BF0023012391
:10160000626A22F4804242EA83336362E36913F040
:10161000040FFBD100EB4000C200044B1344B3F8AD
:101620004A30EB81002038BD09150000DC240000A1
:1016300070B5054604692668C6F3C0664FF49D621E
:101640002849003018BF0120274B98476B68012BB1
:1016500029D0636823F480236360E36913F0040FE7
:10166000FBD12B8813F4806F28D06A8812F0010F09
:1016700004D06A8892B242F480626A8040F2FE72BC
:1016800002EA4302E36913F0040FFBD1636A03F437
:101690008043134343F400436362E36913F0040F90
:1016A000FBD1002070BD002ED3D0636843F48023AB
:1016B0006360E36913F0040FFBD1D2E75B00DBB298
:1016C0006A8802F001021A43E36913F0040FFBD1A8
:1016D000636A03F4804313436362E36913F0040F06
:1016E000FBD1DEE750250000E90D00002DE9F041B7
:1016F00005460469267EF6B2DFF82C8240F24642A7
:101700004146003018BF0120864FB847286940F293
:1017100047424146003018BF0120B84716F0800FFD
:1017200040F0EA802268C2F3C062E36913F0040F5C
:10173000FBD1638B9BB216F0010F7CD013F0020F2C
:1017400013D0012222766A8892B242F480526A80D3
:101750006A8892B222F4807292B26A8013F0010F0A
:1017600000F0BC806FF004018CE013F0040F1FD177
:101770006B8813F4806F39D02B881B125B0003F049
:101780000602E36913F0040FFBD1636A03F480439C
:10179000134343F0F1036362E36913F0040FFBD1D9
:1017A0006B889BB223F480639BB26B80002169E05D
:1017B0006B68002B04DD6B889BB243F480536B8015
:1017C0006B8813F4004F08D16B889BB223F48073AD
:1017D0009BB26B806FF0010154E0636843F44033C7
:1017E0006360E36913F0040FFBD1EDE7696899B911
:1017F0006B8813F4004F06D16B889BB223F480737F
:101800009BB26B803EE0636843F440336360E369FE
:1018100013F0040FFBD1EFE7AB681B78A362E36919
:1018200013F0040FFBD1AB680133AB606B68013B75
:101830006B60002126E016F0020F52D06968002983
:1018400047D013F0040F44D10139696001B932B3B4
:10185000012922D06B684BB96B8813F4004F27D154
:101860006B889BB223F480739BB26B80AA68531C75
:10187000AB60E36913F0040FFBD1A36A137002237A
:1018800023760021002938D116F0010F2BD0AB6947
:101890004BB328469847BDE8F081002ADAD0636848
:1018A00043F480236360E36913F0040FFBD1D1E7B5
:1018B000636823F480736360E36913F0040FFBD162
:1018C000636843F440336360E36913F0040FFBD1B2
:1018D000C6E7022323766FF00101D3E76FF003011F
:1018E000D0E70021CEE716F0020F13D0EB698BB1E1
:1018F00028469847BDE8F08100216B889BB223F40D
:1019000080739BB26B806B6923B129B128469847DD
:1019100080232376BDE8F0816FF0040128469847C4
:10192000F6E700BFE90D00005025000070B50C4639
:101930000646CD221849003018BF0120174B9847A2
:101940002046174B9847054608B1284670BDB4613C
:1019500031462046134B98472046134B98470024A6
:1019600016E0410900F01F02012393400F4A01F1E4
:10197000200642F82630BFF34F8FBFF36F8F01F17F
:10198000600642F8263042F821300130C0B20134FE
:10199000032CE6D9D9E700BF50250000E90D00006F
:1019A0000914000085130000AD13000000E100E001
:1019B0008269136843F002031360D36913F0030FC5
:1019C000FBD17047836999627047836901229A75D8
:1019D0007047836902229A757047000070B50C4603
:1019E0001546064640F22D221649003018BF012048
:1019F000154B984734B1022C04D0012C11D0032C84
:101A000017D070BDB36935B901221A75B3692DB904
:101A100002221A7570BD01229A75F7E702229A75A3
:101A200070BDB36915B904221A7570BD04229A7588
:101A300070BDB36915B180229A75E2E780221A75EC
:101A400070BD00BF50250000E90D000070B51B4EB1
:101A5000044640F26C423146003018BF0120184D58
:101A6000A847246940F25D623146201C18BF01205E
:101A7000A847236843F002032360E36913F0030FD0
:101A8000FBD104214FF6FF72E36913F0040FFBD181
:101A9000638BC3F30113012B0BD0013A002AF3DC53
:101AA000013908D010236383E36913F0040FFBD1DD
:101AB000E8E7002070BD6FF0050070BD5025000004
:101AC000E90D000070B50C46064640F2BA421949CD
:101AD000003018BF0120184B98473461214630462A
:101AE000164B9847054608B1284670BD314620463A
:101AF000134B98472046134B9847002416E04109A2
:101B000000F01F02012393400F4A01F1200642F822
:101B10002630BFF34F8FBFF36F8F01F1600642F89D
:101B2000263042F821300130C0B20134032CE6D90E
:101B3000DAE700BF50250000E90D00005115000054
:101B400085130000AD13000000E100E0F8B50D467C
:101B5000204F04464FF4A2623946003018BF0120DE
:101B60001D4EB047206940F211523946003018BF6F
:101B70000120B04740F212523946281C18BF0120FC
:101B8000B047686820B3638813F4807F1CD16B88EA
:101B90009BB243F480736B8095E8070084E80700EC
:101BA0002269536843F480735360D36913F0040FC0
:101BB000FBD12046094B984748B1628892B222F483
:101BC000807292B26280F8BD6FF00300F8BD002011
:101BD000F8BD00BF50250000E90D000031160000DF
:101BE000012906D019B1022905D0002070474261B1
:101BF000FBE78261F9E7C261F7E74B1EDBB2012B1D
:101C000005D919B903698AB180229A7570470369A9
:101C100032B90221197503692AB901221A75704770
:101C200002219975F7E701229A75704780221A758B
:101C30007047000008B5024B1868024B984708BD72
:101C4000E40000201513000008B5024B1868024B91
:101C5000984708BDE40000201513000008B5024BAA
:101C60001868024B984708BDE400002015130000D7
:101C700008B5024B1868024B984708BDE4000020E5
:101C80001513000008B5024B5868024B984708BD71
:101C9000E4000020ED16000008B5024B5868024B26
:101CA000984708BDE4000020ED16000008B5024B7F
:101CB0005868024B984708BDE4000020ED1600006C
:101CC00008B5024B5868024B984708BDE400002055
:101CD000ED160000034B6FF07F425A6005221A6038
:101CE000704700BF10E000E008B5014B984708BD01
:101CF000D51C0000080E0DE00D4B6FF07F405860C2
:101D000098600B4B1B6813F4803FFAD001F17F41C0
:101D100001311046431EDAB20028EDD1044B596060
:101D20009960034B1B6813F4803FFAD0704700BFE3
:101D300010E000E038B505460469A37A13F0010FFE
:101D400004D00123A372036803B19847637A13F0A8
:101D5000020F05D00223A3726B680BB12846984787
:101D600038BD0000064B984203D0064B984203D082
:101D70007047054B1960F8E7034B5960F8E700BF5F
:101D800000C0014100140042EC00002070B588B092
:101D900006466C46174D0FCD0FC495E80F0084E83A
:101DA0000F000023072B0AD808AA02EB830252F87F
:101DB000202CB24201D00133F4E7DBB200E0002373
:101DC0000022012A0BD802EB820081000A48415C04
:101DD000994202D00132D2B2F3E750B207E04FF499
:101DE000AE7206490020064B98474FF0FF3008B00E
:101DF00070BD00BF6C250000000000208C25000095
:101E0000E90D000070B506460C460846594B984748
:101E100005463461236913F0010F19D1236913F0CA
:101E2000030FFBD1236813F0020F0BD0236823F0BC
:101E300002032360236913F0030FFBD1236913F01E
:101E4000020FFBD101232360236913F0030FFBD1A1
:101E5000236913F0010FFBD105EB85039A00464B74
:101E600013445B682360236913F0030FFBD1AA00BE
:101E70002A449100404B0B449A7AE2731A89E2801B
:101E8000032222735B6803F00C03082B59D0002B4C
:101E90006BD105EB85039A00374B13449B89A383D1
:101EA000236913F0C00FFBD105EB85039A00324B79
:101EB00013441B8AE383236913F0C00FFBD131461F
:101EC00020462E4B984705EB85039A002A4B134476
:101ED000B3F90230002B0DDB5A0903F01F03012177
:101EE00001FA03F32032264941F82230BFF34F8F25
:101EF000BFF36F8F05EB85039A001F4B1344B3F9B3
:101F00000230002B09DB5A0903F01F03012101FAFB
:101F100003F360321A4941F8223005EB8505AA0027
:101F2000154B1344B3F90230002B21DB590903F0A0
:101F30001F03012202FA03F3114A42F82130002064
:101F400070BD0D4B0B44DB68E361236913F0C00FD8
:101F5000FBD105EB85039A00074B13441B692362F1
:101F6000236913F0C00FFBD1A9E74FF0FF3070BD1C
:101F7000002070BD8D1D000000000020651D0000C8
:101F800000E100E00269136843F002031360136983
:101F900013F0030FFBD1704770B50E461546046968
:101FA00020461B4B9847820002449100194B0B447A
:101FB000DE601D615B6803F00C03082B16D000EB9C
:101FC00080039A00134B13449B89A383236913F066
:101FD000C00FFBD100EB800082000E4B13441B8A24
:101FE000E383236913F0C00FFBD170BDE661236961
:101FF00013F0C00FFBD100EB80008200054B1344AF
:102000001B692362236913F0C00FFBD170BD00BFB1
:102010008D1D0000000000200269136913F0030FFA
:10202000FBD11068C0F340007047002070470000EB
:1020300008B5024B1868024B984708BDEC00002019
:10204000351D000008B5024B5868024B984708BD83
:10205000EC000020351D0000704770470D4A1378D2
:102060000133DBB213701378DBB2012B0CD91346AA
:1020700000221A705A7882F001025A705B7823B9F4
:102080004FF48052044B5A6170474FF48052024B18
:102090009A617047F40000200080004100B583B0D1
:1020A00001A91D481D4B984701220DF1030101981C
:1020B0001B4B98471B4B9B786BB99DF80330022B49
:1020C00002D003B05DF804FB164B01229A70002287
:1020D0009A809A71F5E713498A88531C9BB28B80CA
:1020E0009DF8031010488154012B0FD0022B10D003
:1020F0000C4A9279002AE4D092B29342E1D3094B80
:102100000122DA7100229A709A80DAE7054A917109
:10211000EEE7064A1170EBE718010020490D0000B8
:102120003D0A0000F4000020D4010020D402002069
:1021300008B546F2A8124CF250310248024B9847BB
:1021400008BD00BFFC000020050B000010B5054CC9
:102150005922B2212046044B98472046034B98470A
:1021600010BD00BF68010020050B0000C90A000077
:1021700030B583B0094C0A4A00212046094DA847D2
:10218000094A01212046A84701A92046074B984744
:102190002046074B984703B030BD00BF1801002010
:1021A0009D200000750D000059200000490D000021
:1021B0001D0D000070B582B005460E460C4C01A9FD
:1021C00020460C4B984720460B4B98470B4A012161
:1021D00020460B4B98474FF400621B212046094BC9
:1021E0009847324629460198074B984702B070BD80
:1021F00084010020FF090000810900005B2000002D
:10220000DD090000CD090000090A000070B50C4D81
:10221000062128460B4CA04714200B4EB047062140
:1022200005F10800A0471420B04710216818A04706
:102230001420B047022105F12000A04770BD00BF67
:1022400028000020B52100001507000070B50D4DD5
:10225000062105F124000C4CA04714200B4EB0477A
:10226000062105F12C00A0471420B047102105F1EC
:102270003400A0471420B047022105F14400A047D4
:1022800070BD00BF28000020B52100001507000028
:1022900070B50D4D062105F148000C4CA0471420E7
:1022A0000B4EB047062105F15000A0471420B0475F
:1022B000102105F15800A0471420B047022105F174
:1022C0006800A04770BD00BF28000020B5210000B5
:1022D0001507000010B586B02B4B98472B4B98473D
:1022E0002B4B98472B482C4CA0472C48A0472C49F7
:1022F00040202C4B98472C4B98472C4A937DDBB2BF
:1023000005930723937527E0294B984733E0294B22
:10231000984730E0284B98472DE01A1D2749895CE3
:1023200006AA1A4402F80C1C0133DBB2062BF4D9BE
:10233000022101A8224CA047072103A8A04702A917
:102340002048214B984704221C4902981F4B98476C
:102350004FF4FA701E4B98471E4BDB79002BF7D0D9
:1023600000221C4BDA711C4B1B78422BCFD0432B25
:10237000D0D0412BC8D0114B9A788DF80420DB784F
:102380008DF805300023D1E7D10200003121000093
:102390004D210000FC000020C90A00006801002057
:1023A0005D200000AD0700007121000000300040FA
:1023B0000D2200004D22000091220000D4010020D7
:1023C000B521000018010020490D0000090A000095
:1023D00015070000F4000020D402002070B50D4E57
:1023E0000D4CA41BA4100025A54209D10B4E0C4C8A
:1023F00000F0D6F8A41BA4100025A54205D170BD9D
:1024000056F8253098470135EEE756F825309847BD
:102410000135F2E7AC250000AC250000AC2500003A
:10242000B02500002E2E2F68616C2F7372632F6809
:10243000616C5F6932635F6D5F6173796E632E6398
:10244000000000002E2E2F68616C2F7372632F68BE
:10245000616C5F696F2E63002E2E2F68616C2F7385
:1024600072632F68616C5F70776D2E6300000000EF
:102470002E2E2F68616C2F7372632F68616C5F75ED
:10248000736172745F6173796E632E630000000084
:102490002E2E2F68616C2F7574696C732F737263A5
:1024A0002F7574696C735F72696E676275666665B5
:1024B000722E6300000000004000000001000000D8
:1024C000410000002E2E2F68706C2F6569632F6805
:1024D000706C5F6569632E6300000000003000408F
:1024E0000034004000200141004001410000004351
:1024F0000004004300080043000C004300000000FB
:102500000400104000000300020070005CFE0000A8
:102510000000000001000000140020000001000085
:10252000700000000000D70000366E0100000000BF
:10253000000000000000000000000000000000009B
:10254000000000000000000000000000000000008B
:102550002E2E2F68706C2F736572636F6D2F6870ED
:102560006C5F736572636F6D2E630000003800400E
:10257000003C004000A0014100C0014100140042A5
:102580000018004200140043001800432E2E2F684C
:10259000706C2F74632F68706C5F74632E6300001F
:1025A000F8B500BFF8BC08BC9E4670478902000021
:1025B000F8B500BFF8BC08BC9E4670476502000035
:1025C00003006E000004000000000032DB05000084
:1025D000ED02000004006F00000000000000003267
:1025E000BF5D0000DF2E000092020000000000002E
:1025F000920300000000000096010107F82A000085
:1026000098080000881300000503000092020000F3
:102610000000000092030000000000009602030486
:10262000881300005E010000CE00000005030000DA
:102630009202000000000000920300000000000071
:1026400096001804C3010000C10000003200000021
:1026500005030000010000009D0003F82A000000AF
:00000001FF
